:020000040800F2
:1000000060070020450400084D0200084F02000868
:1000100053020008570200085B02000800000000BD
:100020000000000000000000000000005F02000867
:100030006102000800000000630200086502000879
:100040005F0400085F0400085F0400085F04000804
:100050005F0400085F0400085F0400085F040008F4
:100060005F0400085F0400085F0400085F040008E4
:100070005F0400085F0400085F0400085F040008D4
:100080005F0400085F0400085F0400085F040008C4
:100090005F0400085F0400085F0400085F040008B4
:1000A0005F0400085F0400085F0400085F040008A4
:1000B0005F0400085F0400085F0400085F04000894
:1000C0005F0400085F0400085F0400085F04000884
:1000D0005F040008150600085F0400085F040008BC
:1000E0005F0400085F0400085F0400085F04000864
:1000F0005F0400085F0400085F0400085F04000854
:100100005F0400085F0400085F0400085F04000843
:100110005F0400085F0400085F0400085F04000833
:100120005F0400085F0400085F0400085F04000823
:1001300000F002F800F03AF80AA090E8000C8244BF
:100140008344AAF10107DA4501D100F02FF8AFF29C
:10015000090EBAE80F0013F0010F18BFFB1A43F0A5
:100160000103184790310000B0310000103A24BF5D
:1001700078C878C1FAD8520724BF30C830C144BF0C
:1001800004680C607047000000230024002500264E
:10019000103A28BF78C1FBD8520728BF30C148BFEA
:1001A0000B6070471FB51FBD10B510BD02F094FC69
:1001B0001146FFF7F7FF00F009F802F0C5FC03B4A1
:1001C000FFF7F2FF03BC00F0CBF90000002400F0C1
:1001D00059F900F0BFF900214FF4807002F060F986
:1001E0006421124801F014FF00214FF4807002F0E6
:1001F00098F964210E4801F00BFF4FF4165000F0FF
:10020000BDF90CA002F02AFC0FE0601C84B2C820EB
:1002100094FBF0F100FB114010B908A002F01EFCA5
:100220000A2000F06BF902F0F8FAEEE70004004053
:10023000000800407469616E79610A0068656C6C41
:100240006F20776F726C640A00000000704700BF77
:10025000FEE700BFFEE700BFFEE700BFFEE7704716
:1002600070477047704700000CB500200190009067
:100270006B48006840F480306949086000BF6848F6
:10028000006800F4003000900198401C0190009834
:1002900018B90198B0F5A06FF1D16148006810F469
:1002A000003F02D00120009001E000200090009863
:1002B000012842D15B48006840F0100059490860AD
:1002C0000846006820F0030008600846006840F017
:1002D000020008605248406851494860084640683A
:1002E00048600846406840F48060486008464068BE
:1002F00020F47C1048600846406840F4E8104860EC
:100300000846006840F08070086000BF44480068FC
:1003100010F0007FFAD04248406820F003004049C6
:1003200048600846406840F00200486000BF3C4812
:10033000406800F00C000828F9D10CBD10B5FFF79B
:1003400093FF10BD10B53648006840F001003449F5
:10035000086008464068344908403149486008460A
:100360000068324908402E4908600846006820F4B9
:10037000802008600846406820F4FE0048604FF482
:100380001F008860FFF7DAFF4FF00060284908601F
:1003900010BD10B5002100200022214B5B6803F046
:1003A0000C0121B1042906D0082928D107E0214BEE
:1003B000214C236027E01F4B1F4C236023E0184B88
:1003C0005B6803F47010164B5B6803F48032022301
:1003D00003EB904022B9194B4343174C23600DE0C7
:1003E0000F4B5B6813F4003F04D0144B4343124C93
:1003F000236003E00F4B43430F4C236003E00D4B9E
:100400000D4C236000BF00BF054B5B68C3F30313B3
:100410000B4CE15C084B1B68CB40074C236010BDC4
:1004200000100240002002400000FFF8FFFFF6FE2F
:1004300008ED00E000127A000000002000093D00F5
:10044000040000200948804709480047FEE7FEE70E
:10045000FEE7FEE7FEE7FEE7FEE7FEE7FEE7FEE774
:1004600004480549054A064B70470000450300084B
:1004700031010008600100206007002060030020B7
:100480006003002010B56FF0040000F059F92D480A
:1004900000682D49B0FBF1F02C490870084600783F
:1004A00000EB4001C1EBC0104FF6FF7101EAC00044
:1004B0002749088010BD0146244A12784A434FF06C
:1004C000E0235A6100229A611A46126942F0010241
:1004D0001A6100BF4FF0E022106910F0010F02D046
:1004E00010F4803FF6D04FF0E022126922F00102B2
:1004F0004FF0E0231A6100229A6170470146144AC6
:1005000012884A434FF0E0235A6100229A611A464A
:10051000126942F001021A6100BF4FF0E022106937
:1005200010F0010F02D010F4803FF6D04FF0E0221F
:10053000126922F001024FF0E0231A6100229A6151
:10054000704700000000002000127A001400002014
:100550001600002010B54FF4A06000F0A1F810BD07
:10056000014600BF704700BF494A128812F0400F91
:10057000FAD0C2B2464B1B1D1A80704710B586B028
:100580000446012144F2040000F010FE4FF4007014
:10059000ADF8140003208DF8160018208DF8170010
:1005A00005A93C4800F04AF94FF48060ADF814000A
:1005B00004208DF8170005A9364800F03FF92520E2
:1005C0008DF8000003208DF801008DF80200012055
:1005D0008DF80300684600F068F801940020ADF83B
:1005E0000800ADF80A00ADF80C00ADF810000C20C2
:1005F000ADF80E0001A9264801F091FD012240F25C
:100600002551234801F023FE0121214801F013FE6A
:1006100006B010BD10B540F225511D4801F0FCFE9A
:1006200010B31B4801F078FEC4B21B48008810F4D8
:10063000004F2BD11848008810F4804F0CD00A2CA2
:1006400003D000201449088020E01348008840F4BB
:1006500000401149088019E00D2C06D10E48008891
:1006600040F480400C49088010E00B480088C0F33B
:100670000D000A490C5408480088401C06490880AF
:1006800008460088C72801DD0020088010BD000052
:10069000003801400008014018000020340000200C
:1006A00031490143314A1160704770B50021002380
:1006B0000F22C4780CB32D4C246804F4E064C4F514
:1006C000E064210AC1F10403CA40447804FA03F14A
:1006D0008478144021430901254C0678A1550478FB
:1006E00004F01F050124AC4005786D114FF0E026A1
:1006F00006EB8505C5F8004109E0047804F01F0504
:100700000124AC401B4D0678761145F8264070BD9B
:10071000194A0A400243154B1B1F1A60704739B132
:10072000124A121D12680243104B1B1D1A6006E08C
:100730000E4A121D126882430C4B1B1D1A60704733
:10074000042808D14FF0E021096941F004014FF07D
:10075000E022116107E04FF0E021096921F0040176
:100760004FF0E022116170470000FA050CED00E047
:1007700000E400E080E100E080FFFF1F10B50446C8
:10078000CA48844208D10121042000F029FD00213B
:10079000042000F025FD46E0C548844208D101212F
:1007A000082000F01DFD0021082000F019FD3AE0AE
:1007B000C048844208D10121102000F011FD002121
:1007C000102000F00DFD2EE0BB48844208D101212D
:1007D000202000F005FD0021202000F001FD22E096
:1007E000B648844208D10121402000F0F9FC0021E4
:1007F000402000F0F5FC16E0B148844208D1012108
:10080000802000F0EDFC0021802000F0E9FC0AE0EF
:10081000AC48844207D10121801500F0E1FC0021A1
:10082000A01500F0DDFC10BD10B50121084600F058
:10083000D7FC0021012000F0D3FC10BD2DE9F041D0
:10084000024600250026002000230024002791F8FE
:1008500003C00CF00F0591F803C01CF0100F03D07B
:1008600091F802C04CEA050591F800C0BCF1000FF8
:1008700031D0146800202BE04FF0010C0CFA00F38B
:10088000B1F800C00CEA03069E4220D183004FF06D
:100890000F0C0CFA03F7BC4305FA03FC4CEA040402
:1008A00091F803C0BCF1280F06D14FF0010C0CFAEF
:1008B00000FCC2F814C00AE091F803C0BCF1480F74
:1008C00005D14FF0010C0CFA00FCC2F810C0401C1E
:1008D0000828D1D31460B1F800C0BCF1FF0F34DD9B
:1008E000546800202EE000F1080C4FF0010808FACF
:1008F0000CF3B1F800C00CEA03069E4221D183003C
:100900004FF00F0C0CFA03F7BC4305FA03FC4CEA5A
:10091000040491F803C0BCF1280F05D100F1080CC4
:1009200008FA0CF8C2F8148091F803C0BCF1480F23
:1009300007D100F1080C4FF0010808FA0CF8C2F8D2
:100940001080401C0828CED35460BDE8F0814FF6DB
:10095000FF710180022181700421C170704702463D
:10096000002093680B4201D0012000E00020704776
:100970000146886880B2704702460020D3680B4267
:1009800001D0012000E0002070470146C86880B215
:10099000704701617047416170470AB1016100E031
:1009A00041617047C16070474FF480320A438261F1
:1009B0008161826182698269704702460020424BF0
:1009C00018684FF68073184040EA021008433E4B07
:1009D000186070473D49C8617047F0B50A4600236A
:1009E00000240021002500F00046B6F1004F02D19E
:1009F000354EF16901E0344E7168C0F3034583B2AE
:100A000000F44016B6F5401F08D121F070612E4E5B
:100A1000766826F070662C4F7E6012E000F4801637
:100A2000B6F5801F06D1032606FA05F4A14341F06E
:100A3000706106E0460D360103FA06F6B14341F057
:100A4000706122B1460D360103FA06F6314300F01B
:100A50000046B6F1004F02D11B4EF16101E01A4E83
:100A60007160F0BD30B500228B071C0F0F2303FA15
:100A700004F2154B08338C1053F824309343124C76
:100A800008348D1044F8253023468C1053F8243058
:100A90008C07240F00FA04F423430B4C08348D1008
:100AA00044F8253030BD0A4908607047000801400D
:100AB000000C0140001001400014014000180140EA
:100AC000001C0140002001400000014000002042C5
:100AD000DC00204210B50446F748844209D10121C8
:100AE000480500F08AFB00214FF4001000F085FB60
:100AF00008E00121880500F080FB00214FF4800010
:100B000000F07BFB10BD2DE9F04385B004460D4697
:100B10000026B1460427DFF8A483A6884FF6C070EC
:100B20000640684600F0D5FADDF80880E448B8FBD6
:100B3000F0F01FFA80F946EA0906A68020884FF6F1
:100B4000FE71084020800026DE49286888420CD8C3
:100B500028684000B8FBF0F087B2042F00DA0427C1
:100B60003E4309F10100208427E0E888A0F53F41D9
:100B7000FF3906D1286800EB4000B8FBF0F087B2DF
:100B800009E0286800EBC00101EB0010B8FBF0F0B1
:100B900087B247F480473805000D01D147F00107BF
:100BA00047F4004006434FF4967009FB00F04FF401
:100BB0007A7190FBF1F0401C2084A683208840F0DD
:100BC0000100208026884FF6F5300640A888698904
:100BD000084306432680A88929890843208105B057
:100BE000BDE8F08341F288310160002181804BF63D
:100BF000FF71C1800021018141814FF480418181D9
:100C0000704721B1028842F00102028004E00288AC
:100C10004FF6FE731A400280704721B1828842F479
:100C20000062828004E082884FF2FF731A40828063
:100C3000704721B1828842F48052828004E0828829
:100C40004EF6FF731A408280704721B1028842F449
:100C50008072028004E002884FF6FF631A4002802F
:100C6000704721B1028842F40072028004E00288D9
:100C70004FF6FF531A400280704721B1028842F4B8
:100C80008062028004E002884FF6FF331A4002803F
:100C900070470A46002181894FF60173194002F01E
:100CA000FE0319438181704721B1828942F001021C
:100CB000828104E082894FF6FE731A408281704778
:100CC00021B1028842F04002028004E002884FF61F
:100CD000BF731A40028070471AB183880B43838028
:100CE00002E083888B43838070470182704701460E
:100CF000088AC0B2704712B141F0010102E04FF61C
:100D0000FE7319400182704708B50246002000902A
:100D100000920098084400900098008808BD21B116
:100D2000028842F40042028003E00288C2F30E020D
:100D300002807047B1F5006F04D1028842F400626E
:100D4000028004E002884FF2FF731A40028070476D
:100D5000B1F5005F04D1028842F40052028004E041
:100D600002884DF6FF731A400280704721B1028855
:100D700042F48052028004E002884EF6FF731A406B
:100D800002807047B1F5006F04D1028842F400621E
:100D9000028004E002884FF2FF731A40028070471D
:100DA00021B1028842F02002028004E002884FF65E
:100DB000DF731A40028070470146088B00127047AB
:100DC00021B1028842F01002028004E002884FF64E
:100DD000EF731A400280704721B9028842F0800206
:100DE000028004E002884FF67F731A400280704749
:100DF000B1F5804F05D0828B4BF6FF731A4082838A
:100E000003E0828B42F480428283704770B50246D1
:100E10000024002500230020958A138B1B0445EA3B
:100E2000030626F07F4404EA01068E4201D1012028
:100E300000E0002070BD10B5014600200023002214
:100E40008B8A0A8B120443EA020424F07F4010BD0F
:100E50000CB50246002000230193009300920B0F73
:100E6000019321F07F41019B1BB1009B1433009340
:100E700003E0090C009B18330093009B1B680B4296
:100E800001D0012000E000200CBD002221F07F42B3
:100E9000D3438382704730B50246002000239488F4
:100EA00001F0E06504EA154321F07F41948A0C4289
:100EB0000AD04BB1012008E00054004000127A0033
:100EC00040420F00A0860100002030BD002221F02A
:100ED0007F42D34383827047DD48006840F00100C1
:100EE000DB49086008464068DA490840D84948604C
:100EF00008460068D8490840D54908600846006897
:100F000020F4802008600846406820F4FE00486015
:100F10004FF41F0088607047CD49096821F4803183
:100F2000CB4A11601146096821F480211160B0F5A7
:100F3000803F03D0B0F5802F0ED106E0C449096888
:100F400041F48031C24A116007E0C149096841F4A7
:100F5000A021BF4A116000E000BF00BF704710B57C
:100F600001460022002300204A11012A02D1B84C78
:100F7000236806E0022A02D1B54C236A01E0B44C92
:100F8000636A01F01F02012494401C4201D0012039
:100F900000E0002010BD38B500200090002400259E
:100FA00000BF3120FFF7DBFF05460098401C009092
:100FB0000098B0F5A06F01D0002DF2D03120FFF7DE
:100FC000CEFF08B1012400E00024204638BD0146D0
:100FD00000209F4A106820F0F80040EAC10010602D
:100FE00070479E490860704702460020984B586839
:100FF00020F47C1042EA01031843954B5860704777
:1010000096490866704701460020914A506820F0D2
:1010100003000843506070478D48406800F00C00A2
:101020007047014600208A4A506820F0F0000843CB
:101030005060704701460020854A506820F4E06007
:1010400008435060704701460020814A506820F4F0
:10105000605040EAC1005060704729B17C4A527A22
:1010600002437B4B5A7204E0794A527A8243784BAE
:101070005A7270477A490860704701460020744AE6
:10108000506820F440400843506070470021754A82
:1010900011706F4A82F82010012802D0042808D16C
:1010A00003E001216F4A117004E005216D4A1170BF
:1010B00000E000BF00BF70476B490860704764499B
:1010C000096A0143624A11627047674944390860FE
:1010D000704730B500210022002400235C4D6D686C
:1010E00005F00C0121B1042905D0082923D105E020
:1010F0005E4D056022E05D4D05601FE0544D6D685A
:1011000005F47012524D6D6805F48034022505EB2C
:1011100092421CB9564D554305600BE04C4D6D682D
:1011200015F4003F03D0524D5543056002E04F4D8A
:101130005543056002E04D4D056000BF00BF444DC2
:101140006D6805F0F00109094A4D6B5C0568DD40EA
:1011500045603F4D6D6805F4E061090A454D6B5CE3
:101160004568DD4085603A4D6D6805F46051C90AF7
:10117000404D6B5C4568DD40C560354D6D6805F4DC
:101180004041890B3C4D6B5CC568B5FBF3F50561CF
:1011900030BD29B12E4A526902432D4B5A6104E0F9
:1011A0002B4A526982432A4B5A61704729B1284A17
:1011B00092690243264B9A6104E0254A9269824370
:1011C000234B9A61704729B1214AD2690243204BCF
:1011D000DA6104E01E4AD26982431D4BDA6170472E
:1011E00029B11B4AD2680243194BDA6004E0184A5D
:1011F000D2688243164BDA60704729B1144A1269EB
:101200000243134B1A6104E0114A12698243104BE6
:101210001A61704714494039086070470F49C86423
:1012200070470B49C87170470948406A40F08070A8
:1012300007494862704701460020054A92680A4201
:1012400001D0012000E000207047014988727047FA
:10125000001002400000FFF8FFFFF6FE00004242CF
:10126000D8004242201002408004424200127A001C
:1012700000093D00200000203000002010B5044689
:10128000FE48844208D10121C014FFF7A9FF0021C4
:10129000E014FFF7A5FFC4E0B4F1804F08D10121AD
:1012A0000846FFF7AAFF00210120FFF7A6FFB8E0DC
:1012B000F348844208D101210220FFF79EFF00215C
:1012C0000220FFF79AFFACE0EE48844208D10121EA
:1012D0000420FFF792FF00210420FFF78EFFA0E01B
:1012E000E948844208D101210820FFF786FF002148
:1012F0000820FFF782FF94E0E448844208D10121EE
:101300001020FFF77AFF00211020FFF776FF88E01A
:10131000DF48844208D101212020FFF76EFF002121
:101320002020FFF76AFF7CE0DA48844208D10121DF
:101330004014FFF755FF00216014FFF751FF70E0E4
:10134000D548844209D10121C804FFF749FF002193
:101350004FF40020FFF744FF63E0D048844209D1F6
:1013600001210805FFF73CFF00214FF48010FFF733
:1013700037FF56E0CA48844209D101214805FFF7EA
:101380002FFF00214FF40010FFF72AFF49E0C54866
:10139000844208D101214020FFF72FFF0021402087
:1013A000FFF72BFF3DE0C048844208D10121802097
:1013B000FFF723FF00218020FFF71FFF31E0BB482C
:1013C000844208D101218015FFF717FF0021A015E5
:1013D000FFF713FF25E0B648844209D10121080434
:1013E000FFF7FEFE00214FF48030FFF7F9FE18E012
:1013F000B048844209D101214804FFF7F1FE0021E1
:101400004FF40030FFF7ECFE0BE0AB48844208D10C
:1014100001218804FFF7E4FE00214FF48020FFF74C
:10142000DFFE10BD00220288944B98420ED0994BEB
:1014300098420BD0B0F1804F08D0914B984205D024
:10144000904B984202D0904B984204D14FF68F7344
:101450001A404B881A438D4B984207D08C4B9842C8
:1014600004D04FF6FF431A40CB881A4302808B8882
:1014700083850B880385814B98420BD0854B98421E
:1014800008D08B4B984205D08A4B984202D08A4BA9
:10149000984201D10B7A038601238382704770B58D
:1014A000002400220023058C4FF6FE76354005848B
:1014B000028C8388048B4FF68F752C40B51E2C4010
:1014C0000D882C43751E2A400D892A434D882A43D6
:1014D0006A4DA8420BD06F4DA84208D0744DA84267
:1014E00005D0744DA84202D0734DA84213D14FF6D7
:1014F000F7752A404D892A434FF6FB752A408D889F
:101500002A434FF6FF652B404FF6FF552B408D8940
:101510002B43CD892B4383800483CD888586028429
:1015200070BD70B5002400220023058C4FF6EF76C5
:1015300035400584028C8388048B48F6FF752C4067
:101540004FF6FF452C400D884FF6FF7606EA05253D
:101550002C434FF6DF752A400D8906EA05152A430C
:101560004D8806EA05152A43444DA84202D0494D4C
:10157000A8421DD14FF67F752A404D894FF6FF7660
:1015800006EA05152A434FF6BF752A408D8806EAFC
:1015900005152A434FF6FF352B404FF2FF752B40C0
:1015A0008D8906EA85052B43CD8906EA85052B43FF
:1015B00083800483CD880587028470BD70B50024C4
:1015C00000220023058C4FF6FF6635400584028C0F
:1015D0008388848B4FF68F752C404FF6FC752C401A
:1015E0000D882C434FF6FF552A400D894FF6FF76A4
:1015F00006EA05252A434D8806EA05252A431F4D9C
:10160000A84202D0234DA8421DD14FF2FF752A40B7
:101610004D894FF6FF7606EA05252A434FF6FF353A
:101620002A408D8806EA05252A434EF6FF752B4091
:101630004DF6FF752B408D8906EA05152B43CD89A4
:1016400006EA05152B4383808483CD888587028431
:1016500070BD70B5002200230024058C4EF6FF7685
:1016600035400584038C8488828B48F6FF752A40B8
:101670004FF6FF452A400D8820E00000002C014075
:101680000004004000080040000C00400010004032
:101690000014004000340140004C01400050014063
:1016A0000054014000180040001C00400020004091
:1016B0000040014000440140004801404FF6FF76E1
:1016C00006EA05252A434DF6FF752B400D8906EAEB
:1016D00005352B434D8806EA05352B43FA4DA842C4
:1016E00002D0FA4DA84208D14BF6FF752C408D89E7
:1016F0004FF6FF7606EA85152C4384808283CD88D9
:10170000A0F84050038470BD828B4FF2FF331A4023
:101710008283828B4FF6FF7303EA01231A4382838D
:101720007047F0B50C461546002200210026078CB4
:101730004EF6FF7C07EA0C070784828B018C4FF67C
:10174000FF7707EA043640F6FF473A404FF6FF7747
:1017500007EA05273A434FF6FF7707EA03373A438C
:10176000D94FB8420ED0D94FB8420BD0B0F1804F0C
:1017700008D0D74FB84205D0D64FB84202D0D64F86
:10178000B84206D14DF6FF77394046F480573943C9
:1017900005E047F6FF57394044F4805739438283C8
:1017A0000184F0BD828B4FF6F3731A408283828BE3
:1017B0000A4382837047F0B50C461546002200218B
:1017C0000026078C4FF6FF6C07EA0C070784828B14
:1017D000018C4FF6FF7707EA04264FF60C773A4064
:1017E0004FF6FF7707EA03172F433A43B64FB84245
:1017F0000ED0B64FB8420BD0B0F1804F08D0B44FE6
:10180000B84205D0B34FB84202D0B34FB84206D168
:101810004FF6FF57394046F48077394305E04FF2E1
:10182000FF57394044F48077394382830184F0BD07
:10183000028B4FF2FF331A400283028B4FF6FF7385
:1018400003EA01231A4302837047F0B50C4615469C
:10185000002200210026078C4FF6EF7C07EA0C07D8
:101860000784028B018C4FF6FF7707EA041640F6D7
:10187000FF473A404FF6FF7707EA03373A434FF600
:10188000FF7707EA05273A438F4FB8420ED08F4FB4
:10189000B8420BD0B0F1804F08D08D4FB84205D080
:1018A0008C4FB84202D08C4FB84206D14FF6DF774A
:1018B000394046F01007394305E04FF65F7739406D
:1018C00044F01007394302830184F0BD028B4FF6C8
:1018D000F3731A400283028B0A4302837047F0B508
:1018E0000C46154600220021068C4FF6FE773E403E
:1018F0000684028B018C4FF60C7632407E1C06EA81
:1019000003162E433243704EB0420ED06F4EB0429B
:101910000BD0B0F1804F08D06D4EB04205D06D4E67
:10192000B04202D06C4EB04206D14FF6FD76314047
:1019300044F00106314305E04FF6F576314044F0BE
:101940000106314302830184F0BD70B505460C46A3
:101950005D4885420ED05D4885420BD0B5F1804F81
:1019600008D05B48854205D05A48854202D05A4883
:10197000854200D100E000BF208850B92389A288A9
:1019800061882846FFF7ABFFE1882846FFF79EFFF6
:1019900025E0208804280AD12389A2886188284666
:1019A000FFF753FFE1882846FFF742FF17E0208842
:1019B00008280AD12389A28861882846FFF7FBFE00
:1019C000E1882846FFF7EEFE09E02389A2886188B6
:1019D0002846FFF7A6FEE1882846FFF795FE70BD72
:1019E0002DE9F04105460C4600260127608808B91C
:1019F000022600E00026A088012801D1022700E08D
:101A000001272088A0B92389A28861882846FFF78A
:101A100066FFE1882846FFF759FF23893A46314699
:101A20002846FFF712FFE1882846FFF701FF13E081
:101A30002389A28861882846FFF707FFE1882846A6
:101A4000FFF7F6FE23893A4631462846FFF747FF5F
:101A5000E1882846FFF73AFFBDE8F0810A884B8805
:101A60001A438B881A43CB881A430B891A434B8934
:101A70001A438B891A43A0F8442070474FF6FF7130
:101A8000818000210180C180418001727047002166
:101A9000018041808180C180018141818181C1813A
:101AA0007047002101804180012181800021C18097
:101AB000018170470021018041808180C1800181C6
:101AC0004181818170470000002C014000340140B9
:101AD0000004004000080040000C004021B10288D2
:101AE00042F00102028004E002884FF6FE731A40C1
:101AF0000280704731B1B0F8442042F40042A0F8AF
:101B0000442005E0B0F84420C2F30E02A0F84420BF
:101B100070471AB183890B43838102E083898B4329
:101B2000838170478182704741EA0203A0F8483000
:101B300070471AB183890B43838102E083898B4309
:101B40008381704701894FF6F87211400181704717
:101B50000A46002101894FF68F7319401143018114
:101B6000704730B504460D4629462046FFF7F0FF82
:101B7000208940F00700208130BD2DE9F041044666
:101B80000D4616461F46602D06D13B4601223146C2
:101B90002046FFF75AFE05E03B460122314620462B
:101BA000FFF79DFE29462046FFF7D2FF208940F02F
:101BB00007002081BDE8F08130B50C460021018985
:101BC000C9B24FF6FF7505EA03251543254329439E
:101BD000018130BD2DE9F04105460E461746984675
:101BE000002443463A4631462846FFF7E5FF2C8954
:101BF0004FF6F870044044F007044FF68F7004402D
:101C000044F070042C81BDE8F081F0B504460D4627
:101C100016461F463B46324629462046FFF7CCFF74
:101C2000208940F480402081F0BD01858282704788
:101C30000A46002101884FF68F7319401143018035
:101C40007047F0B50C4615461E46002100220023C1
:101C50000189028B038C4FF6F877394021434FF608
:101C6000FC473A4040F201173A434FF6DD773B40DC
:101C70004FF6FF7707EA06172F433B4301810283A4
:101C80000384F0BD0A460021018B4FF68F73194083
:101C90001143018370470A460021018B48F6FF7308
:101CA00019404FF6FF7303EA02231943018370477B
:101CB0000A460021818B4FF68F73194011438183AF
:101CC00070470A460021818B48F6FF7319404FF692
:101CD000FF7303EA022319438183704721B102880D
:101CE00042F08002028004E002884FF67F731A40BF
:101CF0000280704721B1828842F00402828004E0B1
:101D000082884FF6FB731A408280704721B1828827
:101D100042F00802828004E082884FF6F7731A408E
:101D20008280704721B1828842F00102828004E003
:101D300082884FF6FE731A40828070470A4600215F
:101D4000018B4FF6F77319401143018370470A4620
:101D50000021018B4FF2FF7319404FF6FF7303EA26
:101D600002231943018370470A460021818B4FF6F5
:101D7000F77319401143818370470A460021818B14
:101D80004FF2FF7319404FF6FF7303EA0223194322
:101D9000818370470A460021018B4FF6FB7319407F
:101DA0001143018370470A460021018B4FF6FF3330
:101DB00019404FF6FF7303EA02231943018370476A
:101DC0000A460021818B4FF6FB7319401143818332
:101DD00070470A460021818B4FF6FF3319404FF6BA
:101DE000FF7303EA02231943818370470A460021E7
:101DF000018B4FF67F7319401143018370470A46E8
:101E00000021018BC1F30E014FF6FF7303EA022399
:101E10001943018370470A460021818B4FF67F7377
:101E200019401143818370470A460021818BC1F319
:101E30000E014FF6FF7303EA0223194381837047B3
:101E40000A460021018C4FF6FD73194011430184AD
:101E500070470A460021018C4FF6F7731940114371
:101E6000018470470A460021018C4FF6DF73194048
:101E70004FF6FF7303EA02131943018470470A46C1
:101E80000021018C4FF67F7319404FF6FF7303EA70
:101E900002131943018470470A460021018C4FF652
:101EA000FF5319404FF6FF7303EA022319430184DD
:101EB00070470A460021018C4FF2FF7319404FF61C
:101EC000FF7303EA02231943018470470A46002185
:101ED000018C4DF6FF7319404FF6FF7303EA02338E
:101EE00019430184704730B5002301248C40A3B20C
:101EF000048C9C430484048C02FA01F5ADB22C439B
:101F0000048430BD30B5002304248C40A3B2048C7B
:101F10009C430484048C02FA01F5ADB22C43048482
:101F200030BD70B503460020002418461830012546
:101F30008D40ACB21D8CA5431D8409B1082909D17F
:101F400000EB6100056825F0700505600568154324
:101F500005600EE00D1FC5F34E052844056825F405
:101F6000E045056005684FF6FF7606EA0226354330
:101F7000056070BD21B1028842F00202028004E0D7
:101F800002884FF6FD731A400280704721B1028823
:101F900042F00402028004E002884FF6FB731A400C
:101FA0000280704721B1828842F08002828004E082
:101FB00082884FF67F731A408280704702884FF6FE
:101FC000F7731A40028002880A43028070478288B1
:101FD0004FF68F731A40828082880A43828070474E
:101FE00002894FF6F8731A40028102890A4302817E
:101FF000704702894FF67F731A40028102890A43B3
:10200000028170478184704781857047818670475F
:102010000187704781877047A0F840107047028899
:102020004FF6FF431A40028002880A43028070473D
:102030000146888E70470146088F70470146888F99
:1020400070470146B1F8400070470146888C7047E0
:102050000146088D704702460020138A0B4201D0CA
:10206000012000E000207047CA430282704730B56B
:102070000246002000230024158A05EA0103958901
:1020800005EA010413B10CB1012000E0002030BDCD
:10209000CA4302827047000010B50446FB488442E0
:1020A00009D101218803FFF79BF800214FF48040FC
:1020B000FFF796F832E0F648844209D1012148043E
:1020C000FFF79BF800214FF40030FFF796F825E06A
:1020D000F048844209D101218804FFF78EF80021DD
:1020E0004FF48020FFF789F818E0EB48844209D1CB
:1020F0000121C804FFF781F800214FF40020FFF709
:102100007CF80BE0E548844208D101210805FFF77F
:1021100074F800214FF48010FFF76FF810BD2DE91F
:10212000F04786B005460E460024A24600BFA146F1
:102130000027B08900B100BF2F462C8A4CF6FF70F3
:102140000440F08804432C82AC894EF6F31004401E
:10215000B08831890843718908430443AC81AC8A53
:102160004FF6FF400440B0890443AC8201A8FEF75B
:10217000B0FFC648874202D1DDF810A001E0DDF8CB
:102180000CA0A88910F4004F08D00AEBCA0000EB9D
:102190000A1031684900B0FBF1F807E00AEBCA0009
:1021A00000EB0A1031688900B0FBF1F86420B8FB3D
:1021B000F0F004012009642101FB1089A88910F4C2
:1021C000004F08D0322000EBC900B0FBF1F000F066
:1021D0000700044308E0322000EB09106421B0FB43
:1021E000F1F000F00F0004432C8106B0BDE8F08749
:1021F0004FF41651016000218180C18001810C21C2
:10220000418100218181704710B502460020108A6B
:102210004FF2FF0318400B884C8823438C882343DC
:10222000CC8823431843108210BD002101804180D7
:102230008180C180704721B1828942F4005282813D
:1022400004E082894DF6FF731A4082817047F0B531
:1022500003460024002600250020A1F510676A3FF0
:1022600000D100BF1846C1F3421401F01F06012738
:1022700007FA06F5012C01D10C3004E0022C01D143
:10228000103000E014301AB107682F43076002E0F5
:102290000768AF430760F0BD1AB1838A0B4383829E
:1022A00002E0838A8B4383827047028A4FF6F07381
:1022B0001A400282028A0A430282704782894FF2E0
:1022C000FF731A40828182890A438281704721B15B
:1022D000828942F00202828104E082894FF6FD7316
:1022E0001A4082817047028A4FF6DF731A400282D9
:1022F000028A0A430282704721B1028A42F4804274
:10230000028204E0028A4BF6FF731A400282704791
:10231000C1F308028280704701468888C0F3080034
:102320007047818941F0010181817047028BD2B2EF
:102330000283028B42EA012202837047028B02F47D
:102340007F420283028B0A430283704721B1828A53
:1023500042F02002828204E0828A4FF6DF731A4044
:102360008282704721B1828A42F01002828204E0A8
:10237000828A4FF6EF731A408282704721B1828AB7
:1023800042F00802828204E0828A4FF6F7731A4014
:102390008282704721B1828942F40042828103E047
:1023A0008289C2F30E028281704721B1828A42F48F
:1023B0000062828204E0828A4FF2FF731A408282B6
:1023C0007047828A4FF6FB731A408282828A0A43E0
:1023D0008282704721B1828A42F00202828204E046
:1023E000828A4FF6FD731A408282704702460020AF
:1023F000B1F5007F00D100BF13880B4201D001204E
:1024000000E00020704701F40072B2F5007F00D1B7
:1024100000BFCA430280704770B502460024002303
:1024200000250020A1F510666A3E00D100BFC1F36F
:10243000421501F01F03012606FA03F3012D02D114
:102440009689334006E0022D02D1168A334001E01E
:10245000968A33400C12012606FA04F4168834409A
:1024600013B10CB1012000E0002070BD10B50022B6
:102470000023A1F510646A3C00D100BF0A120124B8
:102480009440A3B2DC43048010BD0000003801403A
:102490000044004000480040004C00400050004014
:1024A00030B589B005460C4601210220FEF78BFEAF
:1024B00001210920FEF77AFE01216448FEF78DFA1A
:1024C0002020ADF8200018208DF8230003208DF87F
:1024D000220008A95E48FEF7B1F9ADF81850ADF832
:1024E00014400020ADF81A00ADF8160005A95948AF
:1024F000FEF798FF7020ADF804000120ADF806004B
:102500000020ADF80C0001A95248FFF70AF8082195
:102510005048FFF71CFC01214E48FFF7DFFA09B0D5
:1025200030BD30B589B005460C4601210420FEF7C8
:102530004AFE01210820FEF739FE4020ADF82000B8
:1025400018208DF8230003208DF8220008A94048A8
:10255000FEF774F9ADF81850ADF814400020ADF84E
:102560001A00ADF8160005A93B48FEF75BFF702086
:10257000ADF804000120ADF806000020ADF80A0017
:102580000220ADF80C0001A93348FEF788FF0821AE
:102590003148FFF7D3FB01212F48FFF79FFB0121B3
:1025A0002D48FFF79BFA09B030BD2DE9F0470446EE
:1025B000204600F0BFFD81462849484600F0D8FC7F
:1025C00081464FF08741484600F0C8FD824600F042
:1025D000A3FC07464FF06632214B00F0F1FA0546A6
:1025E00000F0BCFA8146484600F084FD85B22946D9
:1025F0001848FFF70BFDBDE8F0872DE9F0470446CA
:10260000204600F097FD81461449484600F0B0FC92
:1026100081464FF08741484600F0A0FD824600F019
:102620007BFC07464FF066320D4B00F0C9FA0546B9
:1026300000F094FA8146484600F05CFD85B22946D8
:102640000548FFF7E3FCBDE8F087000000081A002A
:10265000000C014000040040000800400000C84297
:1026600066660A4070B504460D4616460121F548D7
:10267000FEF7EBFA00BFF449F248FEF7C7FB00286B
:10268000F9D000222146EF48FEF735FB00BFEF49A5
:10269000EC48FEF7BBFB0028F9D03146E948FEF7CD
:1026A00024FB00BFE949891CE648FEF7AFFB002880
:1026B000F8D02978E348FEF718FB00BFE349891CEE
:1026C000E048FEF7A3FB0028F8D00121DD48FEF723
:1026D000C8FA70BD2DE9F04106460D4617461C4666
:1026E00000BF4FF40031D748FEF7B2FB0028F8D105
:1026F0000121D448FEF7A9FA00BFD349D148FEF71B
:1027000085FB0028F9D000223146CE48FEF7F3FAC7
:1027100000BFCE49CB48FEF779FB0028F9D0012154
:10272000C848FEF76EFA3946C648FEF7DEFA00BF23
:10273000C649891CC348FEF769FB0028F8D001216F
:10274000C048FEF782FA00BFBF49BE48FEF75EFBF5
:102750000028F9D001223146BA48FEF7CCFA00BF72
:10276000B949491CB748FEF751FB0028F8D016E0DC
:10277000012C07D10021B348FEF77FFA0121B148AF
:10278000FEF76FFAB0493F31AE48FEF73FFB30B17C
:10279000AC48FEF7ACFA28706D1C601E84B2002CA9
:1027A000E6D10121A748FEF768FABDE8F0812DE9DE
:1027B000F84381460F4615461C46089E01233A46BB
:1027C00069464846FFF786FF0120A040401E291BAE
:1027D000491C884000F0FF08281B401C06FA00F046
:1027E000C6B206EA08069DF8000020EA080000903C
:1027F0009DF80000304300903A4669464846FFF78E
:1028000031FFBDE8F88338B50446032302226B216B
:10281000D0200094FFF7CBFF38BD10B50120FFF7A3
:10282000F2FF10BD2DE9F84307460E4615461C463B
:10283000DDF820800123324669463846FFF74AFF1B
:102840000120A040401E291B491C884000F0FF09C0
:102850009DF8000000EA09000090281B401C9DF82C
:102860000010014100919DF8000088F80000BDE8CB
:10287000F8831CB501A806231A4675210090D020C4
:10288000FFF7D0FF9DF804001CBD10B5FFF7F1FF66
:10289000342801D1012010BD0020FCE738B50446E2
:1028A000022304221B21D0200094FFF780FF38BDB3
:1028B0001CB501A8022304221B210090D020FFF7A1
:1028C000B1FF9DF804001CBD1CB501A80223042221
:1028D0001C210090D020FFF7A5FF9DF804001CBD2F
:1028E00038B50446022304221C21D0200094FFF7AF
:1028F0005EFF38BDF8B507460C4615461E46012357
:10290000224669463846FFF7E5FE0120A8409DF8BB
:10291000001008403070F8BD08B56B4606226B21E8
:10292000D020FFF7E7FF9DF8000008B1012008BDA7
:102930000020FCE7F8B507460D4614461E46012365
:102940002A4669463846FFF7C5FE2EB10120A04051
:102950009DF80010084305E00120A0409DF80010FC
:1029600021EA0000C0B200902A4669463846FFF7C7
:1029700079FEF8BD10B50446234606226B21D0200F
:10298000FFF7D8FF10BD7FB505460E233B226946F1
:10299000D020FFF79FFE00240BE01DF8140061001B
:1029A000491C1DF8011001EB002000B225F81400AD
:1029B000641C032CF1DB04240CE01DF814006100FE
:1029C000491C1DF8011001EB002001B2601E25F822
:1029D0001010641C072CF0DB7FBD00B585B0012111
:1029E0008805FEF7F0FB01210820FEF7DFFB4FF41E
:1029F0004060ADF8000003208DF802001C208DF827
:102A0000030069461248FDF719FF0020ADF80800E1
:102A10004BF6FF70ADF80A00D020ADF80C004FF473
:102A20008060ADF80E000001ADF81000094801907B
:102A300001A90448FEF767F801210248FEF7E1F812
:102A400005B000BD005800400100030082000700EF
:102A5000000C0140A0860100704700000FB404493B
:102A600010B503AA029800F009F810BC5DF814FB39
:102A70001C0000207047704770477047074B70B5C7
:102A80000D467B4400F011F80446284600F020F87B
:102A900010B14FF0FF3070BD204670BDE1DAFFFF8E
:102AA00001694A1C02610878704700B58FB0CDE912
:102AB00001310021059105497944CDE90310114602
:102AC000684600F02EF80FB000BD0000E5FFFFFFE4
:102AD000007B00F080007047754600F03BF8AE4682
:102AE00005006946534620F00700854618B020B51A
:102AF000FDF7B6FCBDE820404FF000064FF00007A0
:102B00004FF000084FF0000B21F00701AC46ACE895
:102B1000C009ACE8C009ACE8C009ACE8C0098D4602
:102B200070472DE9F04106460024D6E90170F568AA
:102B3000804602E04146B847641C3046A84700285A
:102B4000F8D12046BDE8F0810446AFF3008020466E
:102B5000FDF735FB00487047FC00002021F00042E3
:102B6000A2F16052B2F5801F01F0004328BFD2F1FC
:102B70007F6C0BD95FEA001C43EAC20242EB507043
:102B800018BF704728BF20F001007047B2F5801FC2
:102B9000BCBF184670474FEA410C1CF5001F02D21B
:102BA000084600F0A2BB70B500F062F90000008991
:102BB000FFF7F6BF4FF00040A0F58000704700001F
:102BC0002DE9C04130B4DFF8A0C23CEA111418BFAF
:102BD0003CEA131400F0EC8081EA03051CEA1114AE
:102BE00044EAD57418BF1CEA131500F0C780A4EBA3
:102BF00005044FF0004545EAC12145EAC32341EAF7
:102C0000505143EA525304F17F74994204F5003461
:102C10004FEAC0204FEAC22208BF904200F09C80D9
:102C20004FEA13650FF24016765D4FEA134506FB37
:102C300005F7C7F1807706FB07F74FEAD737A7FB01
:102C400003687642C8F58038A7FB06CE38BFA8F1E6
:102C5000010807FB08E64FF0000EA6FB028CE6FB1E
:102C600003CEDCF1000CCEF1004E38BFAEF1010E08
:102C7000A6FB0C584FF000074FF00005E6FB0E874F
:102C8000A1FB08C6A0FB07CE16EB0E0645F100051A
:102C9000E1FB076515F1E04E7EBFA4F580345FEAE5
:102CA00046066D4116F1800745F100054FEA1727EA
:102CB0004FEA066647EA0567A6F1DE46B6F1805F91
:102CC0004FEA15251FD9384624F0010C05EBC471D5
:102CD000BCF1FE6F01EB0C1102D8F0BCBDE8008125
:102CE00024425CBF01F5801E9EEAC47F02D4F0BC82
:102CF000BDE80081244238D4F0BCA1F1C041BDE858
:102D0000004100F003B94FEAD22242EA43524FEAAF
:102D1000D323A7FB02864FEAD02040EA415007FBAD
:102D200003661EEA0E0F4FEAD12105FB026658BF6B
:102D3000A6EB0056B6EB00564FEA520E4EEAC37EA3
:102D400018EB0E0E56EB530EBDD518EB02085E4184
:102D50007F1C55F10005B6E74FF480154FF00007D2
:102D60004FF000064FF00008ADE7F0BC4FF0000058
:102D700001F1C04101F00041BDE8008111EA0C1FE2
:102D80000CEA131500D00CE013EA0C1F00F02580AC
:102D90004FF00000F0BC81EA030101F00041BDE802
:102DA0000081F0BCBDE8004181EA030100F0AEB84B
:102DB000F0BCBDE8004170B500F05AF8097EFC3E59
:102DC00000F007B881EA03014FF0000001F0004174
:102DD000704781EA030100F099B8F0BCBDE80041FA
:102DE0004FF0000021497047FFFDFBF9F7F5F4F2C1
:102DF000F0EEEDEBE9E8E6E4E3E1E0DEDDDBDAD896
:102E0000D7D5D4D3D1D0CFCDCCCBCAC8C7C6C5C4F3
:102E1000C2C1C0BFBEBDBCBBBAB9B8B7B6B5B4B30A
:102E2000B2B1B0AFAEADACABAAA9A8A8A7A6A5A4F5
:102E3000A3A3A2A1A09F9F9E9D9C9C9B9A999998B9
:102E40009797969595949393929191908F8F8E8E5C
:102E50008D8C8C8B8B8A89898888878786858584E9
:102E600084838382828181800000FF070000F87FD5
:102E70000EF1020E2EF0030E5EF8046B364205D4FE
:102E8000012A43EB030515F5001F12D8012841EB79
:102E9000010C1CF5001F0CD80ED14FEAD17C15F5A2
:102EA000001F0CEB4C0C0CF1020C08BF4CEBD37C5C
:102EB00004E04FF0080C01E04FEAD37C0CEB4C052A
:102EC00026FA05F606F00706B6F1040C06D20EEB5C
:102ED000860CBDE870404CF0010C6047DFE80CF058
:102EE000090B02024FF000414FF00000A1F5002154
:102EF00070BD19461046012851EB010418BFD4F5E6
:102F0000001484BF002001F0004170BD0808A0F546
:102F100000114FEA3101704743004FEAD30C4FEAEA
:102F20003C0C43401FBF40070CF1605113F0FE4FB3
:102F300070471CF0006F03D100200CF00041704777
:102F40000CF0004343EA507010B540EACC0000F0AA
:102F500086F900BF000000924FEA0001FFF7D6BFDC
:102F60004FF000414FF00000A1F500217047000034
:102F70004FF47F0C1CEAD0121EBF1CEAD11392EA58
:102F80000C0F93EA0C0F00F0858090EA010F48BF08
:102F900042F4807240F4000C41F400002CF07F41B8
:102FA00020F07F4000B58142A2EB03020FF2081C23
:102FB000ACEB504EC0F100009EF800E04FEA4E0E20
:102FC00000FB0EFC38BF49004FEA2C1C02F5FA0248
:102FD0000CFB0EF34FEACE1E4FEA112C4FEAC12133
:102FE0000EEB635E42EB22420EFB0CFC4FEA1C53DD
:102FF00000FB03114FEA112C4FEA01310EFB0CFCD0
:103000004FEADC4C00FB0C11C14228BF09184CEB05
:1030100003335DF804EB10EB410143EBC250B2F512
:103020007C0F38BF704729D512F0F00F1CBF00F19C
:10303000C04000F00040704700818283848586870D
:1030400088898B8C8D8E8F919293959697999A9C67
:103050009D9FA0A2A3A5A7A8AAACAEB0B2B3B5B7D6
:10306000B9BCBEC0C2C5C7C9CCCED1D4D7D9DCDFAC
:10307000E2E6E9ECF0F3F7FAFE0000004FEA400C5C
:103080000CF1807CBCF17E4F28BF7047B0F1C0408E
:1030900000F02BB990EA010F0CEAD11348BF42F4BB
:1030A0008072624538BF634507D213F47F0F16D094
:1030B00080EA010000F00040704710B500F0CFF842
:1030C000097EFC3E00F005B880EA010000F00040F7
:1030D000704780EA010000F0004000F006B912F4E9
:1030E0007F0F04BF0248704780EA010000F0FDB87E
:1030F0000000C07FC10DD1F19E0206DB4FEA002324
:1031000043F0004323FA02F07047004207D54FEA2C
:103110004001B1F1FE4F02D24FF00000704710B5F0
:1031200000F09DF849922480002070476FEA20004B
:1031300070470000B0FA80F310FA03F2C3F19D0368
:103140000AD0D90501EB1220530638BF704700F1B1
:10315000010008BF20F00100704700004FF47F0C11
:103160001CEAD0121EBF1CEAD11392EA0C0F93EA9C
:103170000C0F00F0478090EA010F48BF42F48072C4
:103180004FF0004C4CEA00204CEA012102EB030214
:10319000A0FB0113A2F50002002918BF43F00103B0
:1031A0005B0028BF4FEA330342EB22425FEA132C55
:1031B0004CEBC2502EBFBCEB436FB2F57C0F704797
:1031C0004FEA036CBCF1004F08BF20F00100B2F5DC
:1031D0007C0F38BF70470BD582F0FF0212F5803F9D
:1031E000C8BF704700F1C040D8BF00F00040704732
:1031F00000F5000C5FEA4C0C48BF7047B0F1C040CE
:1032000000F073B890EA010F0CEAD11348BF42F402
:103210008072624538BF634504D280EA010000F045
:103220000040704710B500F01AF800BF8900013E59
:1032300000F007B800F009B85FEA410C5FEA1C6CC7
:1032400008D080EA010000F050B85FEA400C5FEA65
:103250001C6CF6D14FF00040A0F5800070470EF1D5
:10326000020E2EF0030E5EF8044B244204D44FEA03
:103270004102B2F17F4F11D84FEA4003B3F17F4FC3
:103280000CD80ED14FEAD07CB2F17F4F0CEB4C0C36
:103290000CF1020C08BF4CEBD17C04E04FF0080CA1
:1032A00001E04FEAD17C0CEB4C0324FA03F404F068
:1032B0000704B4F1040C06D20EEB840CBDE81040F8
:1032C0004CF0010C6047DFE80CF0070802024FF0F9
:1032D0000040A0F5800010BD0846420018BFD2F1A2
:1032E000807288BF00F0004010BDFF2141EAD0503D
:1032F000C0057047143300080000002034000000AF
:103300006C01000848330008340000202C0700003E
:103310008801000800A24A0400000000000000002C
:103320000102030406070809000000000000000075
:103330000000000000000000010203040102030479
:08334000060708090204060853
:0400000508000445A6
:00000001FF
